:020000040800F2
:100000000050002095560008E71D0008E91D000873
:10001000EB1D0008ED1D0008EF1D000800000000AA
:10002000000000000000000000000000F11D0008BA
:10003000F31D000800000000F51D0008F91D000870
:10004000DD560008DD560008DD560008DD560008C4
:10005000DD560008DD560008DD560008DD560008B4
:10006000DD560008DD560008DD560008DD560008A4
:10007000DD560008211E0008DD560008DD56000888
:10008000DD560008111E0008DD560008DD56000888
:10009000DD560008DD560008DD560008DD56000874
:1000A000DD5600084D470008DD560008DD56000803
:1000B0005D470008DD560008DD560008DD560008E3
:1000C000DD560008DD560008DD560008DD56000844
:1000D000DD560008DD560008411E0008311E0008EC
:1000E000DD560008DD560008DD560008000000005F
:1000F0000000000000000000000000000000000000
:0C01000000000000000000005FF808F1A3
:10011000044B05481B1A062B02D9044B03B11847A0
:10012000704700BFEB010020E80100200000000044
:1001300005490648091A891001EBD171491002D00E
:10014000034B03B118477047E8010020E801002085
:100150000000000010B5064C237843B9FFF7D8FF24
:10016000044B13B10448AFF300800123237010BD8A
:10017000E801002000000000E056000808B5084B28
:100180001BB108490848AFF300800848036813B959
:10019000BDE80840CCE7064B002BF9D09847F7E7BD
:1001A00000000000EC010020E0560008E8010020FB
:1001B0000000000081F0004102E000BF83F0004336
:1001C00030B54FEA41044FEA430594EA050F08BFF2
:1001D00090EA020F1FBF54EA000C55EA020C7FEAB6
:1001E000645C7FEA655C00F0E2804FEA5454D4EB33
:1001F0005555B8BF6D420CDD2C4480EA020281EAFD
:10020000030382EA000083EA010180EA020281EA34
:100210000303362D88BF30BD11F0004F4FEA013186
:100220004FF4801C4CEA113102D0404261EB410195
:1002300013F0004F4FEA03334CEA133302D052421B
:1002400063EB430394EA050F00F0A780A4F10104D7
:10025000D5F1200E0DDB02FA0EFC22FA05F2801811
:1002600041F1000103FA0EF2801843FA05F35941F7
:100270000EE0A5F120050EF1200E012A03FA0EFC76
:1002800028BF4CF0020C43FA05F3C01851EBE371A0
:1002900001F0004507D54FF0000EDCF1000C7EEBBD
:1002A00000006EEB0101B1F5801F1BD3B1F5001FFB
:1002B0000CD349085FEA30004FEA3C0C04F101041A
:1002C0004FEA445212F5800F80F09A80BCF1004F43
:1002D00008BF5FEA500C50F1000041EB045141EAC5
:1002E000050130BD5FEA4C0C404141EB010111F4C6
:1002F000801FA4F10104E9D191F0000F04BF014671
:100300000020B1FA81F308BF2033A3F10B03B3F14E
:1003100020020CDA0C3208DD02F1140CC2F10C02DE
:1003200001FA0CF021FA02F10CE002F11402D8BF3C
:10033000C2F1200C01FA02F120FA0CFCDCBF41EA08
:100340000C019040E41AA2BF01EB0451294330BDD7
:100350006FEA04041F3C1CDA0C340EDC04F11404B4
:10036000C4F1200220FA04F001FA02F340EA03008B
:1003700021FA04F345EA030130BDC4F10C04C4F1D1
:10038000200220FA02F001FA04F340EA03002946B1
:1003900030BD21FA04F0294630BD94F0000F83F4FB
:1003A000801306BF81F480110134013D4EE77FEADE
:1003B000645C18BF7FEA655C29D094EA050F08BF2A
:1003C00090EA020F05D054EA000C04BF194610460B
:1003D00030BD91EA030F1EBF0021002030BD5FEA4F
:1003E000545C05D14000494128BF41F0004130BD77
:1003F00014F580043CBF01F5801130BD01F00045CB
:1004000045F0FE4141F470014FF0000030BD7FEA3D
:10041000645C1ABF194610467FEA655C1CBF0B4638
:10042000024650EA013406BF52EA033591EA030F4F
:1004300041F4002130BD00BF90F0000F04BF002147
:10044000704730B54FF4806404F132044FF000057A
:100450004FF0000150E700BF90F0000F04BF0021F3
:10046000704730B54FF4806404F1320410F0004559
:1004700048BF40424FF000013EE700BF42004FEA54
:10048000E2014FEA31014FEA02701FBF12F07F43D1
:1004900093F07F4F81F06051704792F0000F14BFCE
:1004A00093F07F4F704730B54FF4607401F0004512
:1004B00021F0004120E700BF50EA010208BF704769
:1004C00030B54FF000050AE050EA010208BF70475E
:1004D00030B511F0004502D5404261EB41014FF4C7
:1004E000806404F132045FEA915C3FF4DCAE4FF0CB
:1004F00003025FEADC0C18BF03325FEADC0C18BFB2
:10050000033202EBDC02C2F1200300FA03FC20FA02
:1005100002F001FA03FE40EA0E0021FA02F114444F
:10052000C1E600BF70B54FF0FF0C4CF4E06C1CEA64
:1005300011541DBF1CEA135594EA0C0F95EA0C0FD9
:1005400000F0DEF82C4481EA030621EA4C5123EA4C
:100550004C5350EA013518BF52EA033541F480117B
:1005600043F4801338D0A0FB02CE4FF00005E1FB2E
:1005700002E506F00042E0FB03E54FF00006E1FB78
:1005800003569CF0000F18BF4EF0010EA4F1FF04BB
:10059000B6F5007F64F5407404D25FEA4E0E6D41FB
:1005A00046EB060642EAC62141EA55514FEAC5200C
:1005B00040EA5E504FEACE2EB4F1FD0C88BFBCF588
:1005C000E06F1ED8BEF1004F08BF5FEA500E50F139
:1005D000000041EB045170BD06F0004646EA0101FF
:1005E00040EA020081EA0301B4EB5C04C2BFD4EB31
:1005F0000C0541EA045170BD41F480114FF0000E2A
:10060000013C00F3AB8014F1360FDEBF002001F097
:10061000004170BDC4F10004203C35DA0C341BDC11
:1006200004F11404C4F1200500FA05F320FA04F0E3
:1006300001FA05F240EA020001F0004221F0004117
:1006400010EBD37021FA04F642EB06015EEA430E8A
:1006500008BF20EAD37070BDC4F10C04C4F12005BA
:1006600000FA04F320FA05F001FA04F240EA02006D
:1006700001F0004110EBD37041F100015EEA430E3E
:1006800008BF20EAD37070BDC4F1200500FA05F25E
:100690004EEA020E20FA04F301FA05F243EA0203DD
:1006A00021FA04F001F0004121FA04F220EA0200EC
:1006B00000EBD3705EEA430E08BF20EAD37070BD32
:1006C00094F0000F0FD101F00046400041EB010112
:1006D00011F4801F08BF013CF7D041EA060195F0F4
:1006E000000F18BF704703F00046520043EB0303AE
:1006F00013F4801F08BF013DF7D043EA060370479B
:1007000094EA0C0F0CEA135518BF95EA0C0F0CD0A5
:1007100050EA410618BF52EA4306D1D181EA0301EB
:1007200001F000414FF0000070BD50EA410606BFE5
:100730001046194652EA430619D094EA0C0F02D12A
:1007400050EA013613D195EA0C0F05D152EA03366F
:100750001CBF104619460AD181EA030101F000418D
:1007600041F0FE4141F470014FF0000070BD41F0D6
:10077000FE4141F4780170BD70B54FF0FF0C4CF4B0
:10078000E06C1CEA11541DBF1CEA135594EA0C0FCF
:1007900095EA0C0F00F0A7F8A4EB050481EA030E1C
:1007A00052EA03354FEA013100F088804FEA033303
:1007B0004FF0805545EA131343EA12634FEA0222D1
:1007C00045EA111545EA10654FEA00260EF0004192
:1007D0009D4208BF964244F1FD0404F5407402D2E4
:1007E0005B084FEA3202B61A65EB03055B084FEA75
:1007F00032024FF480104FF4002CB6EB020E75EB72
:10080000030E22BFB61A754640EA0C005B084FEA99
:100810003202B6EB020E75EB030E22BFB61A754616
:1008200040EA5C005B084FEA3202B6EB020E75EB61
:10083000030E22BFB61A754640EA9C005B084FEAD9
:100840003202B6EB020E75EB030E22BFB61A7546E6
:1008500040EADC0055EA060E18D04FEA051545EAD5
:1008600016754FEA06164FEAC30343EA52734FEA7E
:10087000C2025FEA1C1CC0D111F4801F0BD141EAF7
:1008800000014FF000004FF0004CB6E711F4801F5C
:1008900004BF01430020B4F1FD0C88BFBCF5E06F3C
:1008A0003FF6AFAEB5EB030C04BFB6EB020C5FEA4C
:1008B000500C50F1000041EB045170BD0EF0004EA1
:1008C0004EEA113114EB5C04C2BFD4EB0C0541EAD3
:1008D000045170BD41F480114FF0000E013C90E6D0
:1008E00045EA060E8DE60CEA135594EA0C0F08BF94
:1008F00095EA0C0F3FF43BAF94EA0C0F0AD150EA93
:1009000001347FF434AF95EA0C0F7FF425AF104625
:1009100019462CE795EA0C0F06D152EA03353FF44D
:10092000FDAE1046194622E750EA410618BF52EACA
:1009300043067FF4C5AE50EA41047FF40DAF52EA9E
:1009400043057FF4EBAE12E74FF0FF3C06E000BF3B
:100950004FF0010C02E000BF4FF0010C4DF804CD48
:100960004FEA410C7FEA6C5C4FEA430C18BF7FEA08
:100970006C5C1BD001B050EA410C0CBF52EA430C36
:1009800091EA030F02BF90EA020F0020704710F1B6
:10099000000F91EA030F58BF994208BF90422CBF45
:1009A000D8176FEAE37040F0010070474FEA410C3E
:1009B0007FEA6C5C02D150EA013C07D14FEA430C5C
:1009C0007FEA6C5CD6D152EA033CD3D05DF8040BCD
:1009D000704700BF8446104662468C4619466346FF
:1009E00000E000BF01B5FFF7B7FF002848BF10F1D6
:1009F000000F01BD4DF808EDFFF7F4FF0CBF01201B
:100A000000205DF808FB00BF4DF808EDFFF7EAFF96
:100A100034BF012000205DF808FB00BF4DF808ED51
:100A2000FFF7E0FF94BF012000205DF808FB00BF46
:100A30004DF808EDFFF7CEFF94BF012000205DF8D0
:100A400008FB00BF4DF808EDFFF7C4FF34BF0120DD
:100A500000205DF808FB00BF4FEA410212F50012CA
:100A600015D211D56FF47873B3EB625212D94FEAF5
:100A7000C12343F0004343EA505311F0004F23FADF
:100A800002F018BF404270474FF00000704750EA34
:100A9000013005D111F0004008BF6FF000407047F1
:100AA0004FF00000704700BF00F002B800000000E7
:100AB0002DE9F84F5442144323F00049DFF8C0E118
:100AC00049EAD474744506460D4640D8444204436E
:100AD00021F0004B4BEAD47474458A4637D803F1B1
:100AE000404404F5801414434AD09C1704F00204D7
:100AF00044EAD17450EA0B0131D052EA090137D0EF
:100B0000F14552D0F34533D0ABEB09094FEA2959EF
:100B1000B9F13C0F3BDC002B66DB30462946FFF782
:100B20002BFE00F051FA00F0AFF8012C58D0022C47
:100B300048D0002C5ED040A3D3E90023FFF73EFB52
:100B40003FA3D3E90023FFF739FBBDE8F88F104638
:100B5000194632462B46FFF733FBBDE8F88F022CCF
:100B600019D0032C10D138A1D1E90001BDE8F88FCC
:100B7000BAF1000F14DB36A1D1E90001BDE8F88F0E
:100B8000BDE8F84F00F080B82946BDE8F88F30A1E5
:100B9000D1E90001C9E72AA1D1E90001BDE8F88F38
:100BA0002DA1D1E90001BDE8F88FCB4524D0022C5E
:100BB000F1D0032CD7D0012C4FF0000027D000211A
:100BC000BDE8F88F1CA3D3E90023FFF7F7FA02462C
:100BD0000B461BA1D1E90001FFF7F0FABDE8F88F41
:100BE00001F10041BDE8F88F19F13C0F95DA0020C2
:100BF00000219AE7BDE8F88F022C16D0032C0FD005
:100C0000012C08D016A1D1E90001BDE8F88F4FF002
:100C10000041BDE8F88F14A1D1E90001BDE8F88FCB
:100C200013A1D1E90001BDE8F88F13A1D1E90001BA
:100C3000BDE8F88FAFF30080075C143326A6A13C13
:100C4000182D4454FB210940182D4454FB2109C0A0
:100C5000182D4454FB21F93F182D4454FB21F9BFB2
:100C6000182D4454FB21E93F182D4454FB21E9BFC2
:100C7000D221337F7CD902C0D221337F7CD902407C
:100C80000000F07F000000002DE9F84FC24B21F07A
:100C900000469E420D468A46044610DDBF4B9E42EA
:100CA00000F3B28000F0AD80BD4BBE49BE4CBAF13E
:100CB000000FD8BF0B4620461946BDE8F88FBB4B46
:100CC0009E4200F3BE80A3F1DE739E4240F3A880F3
:100CD0004FF0FF3B22462B4620462946FFF722FCD9
:100CE00002460B4680468946FFF71CFC92A3D3E9D7
:100CF000002306460F46FFF715FC91A3D3E9002316
:100D0000FFF75EFA32463B46FFF70CFC8EA3D3E9B1
:100D10000023FFF755FA32463B46FFF703FC8CA34E
:100D2000D3E90023FFF74CFA32463B46FFF7FAFBC4
:100D300089A3D3E90023FFF743FA32463B46FFF786
:100D4000F1FB87A3D3E90023FFF73AFA42464B466B
:100D5000FFF7E8FB84A3D3E90023804689463046A9
:100D60003946FFF7DFFB82A3D3E90023FFF726FA1A
:100D700032463B46FFF7D6FB7FA3D3E90023FFF7BC
:100D80001DFA32463B46FFF7CDFB7DA3D3E9002396
:100D9000FFF714FA32463B46FFF7C4FB7AA3D3E9C8
:100DA0000023FFF70BFA32463B46FFF7BBFBBBF1D4
:100DB000FF3F02460B466BD07D4E40464946FFF74B
:100DC000FFF906EBCB0B22462B46FFF7ABFBDBE92B
:100DD0000823FFF7F3F922462B46FFF7EFF90B46FE
:100DE0000246DBE90001FFF7E9F9BAF1000F04461A
:100DF0000B46BFF660AF01F1004320461946BDE83F
:100E0000F88F00283FF450AF22462B462046294653
:100E1000FFF7D6F904460B4620461946BDE8F88F81
:100E20005BA3D3E90023FFF7CBF90022614BFFF767
:100E300009FE00283FF44CAF2B4620461946BDE87A
:100E4000F88F00F0C1F85C4B04469E420D4630DC42
:100E5000A3F550239E4255DC02460B46FFF7B0F93E
:100E60000022544BFFF7AAF9002206460F464FF026
:100E7000804320462946FFF7A3F902460B46304639
:100E80003946FFF779FC4FF0000B04460D4621E789
:100E900040464946FFF794F922462B46FFF742FBAE
:100EA0000B46024629462046FFF788F904460B46C2
:100EB00001E7424B9E421ADC0022414BFFF77EF9CC
:100EC000002206460F463E4B20462946FFF72AFBE6
:100ED0000022384BFFF774F902460B46304639467C
:100EE000FFF74AFC4FF0020B04460D46F2E60246BD
:100EF0000B4600203349FFF73FFC4FF0030B04463D
:100F00000D46E7E600222B4BFFF758F90022064674
:100F10000F46284B20462946FFF752F902460B465A
:100F200030463946FFF728FC4FF0010B04460D46CA
:100F3000D0E600BFAFF3008011DA22E33AAD903F74
:100F4000EB0D76244B7BA93F513DD0A0660DB13F00
:100F50006E204CC5CD45B73FFF8300922449C23F68
:100F60000D5555555555D53F2F6C6A2C44B4A2BF2D
:100F70009AFDDE522DDEAD3F6D9A74AFF2B0B33FF5
:100F8000711623FEC671BC3FC4EB98999999C93F6D
:100F90009C7500883CE4377EFFFF0F440000F07F23
:100FA000FB21F93FFB21F9BF182D4454FFFFDB3F24
:100FB000285700080000F03FFFFFF23FFF7F03408B
:100FC0000000F83F0000F0BF21F00041704700BF73
:100FD00070B50F4E0F4D761BB61018BF002405D00C
:100FE000013455F8043B9847A642F9D10A4E0B4DFF
:100FF00004F076FB761BB61018BF002406D001342F
:1010000055F8043B9847A642F9D170BD70BD00BFAA
:101010005C5E00085C5E0008605E00085C5E0008C4
:10102000844641EA000313F0030349D1403A23D335
:101030000B6803604B6843608B688360CB68C36058
:101040000B6903614B6943618B698361CB69C36140
:101050000B6A03624B6A43628B6A8362CB6AC36228
:101060000B6B03634B6B43638B6B8363CB6BC36310
:1010700040304031403ADBD230320BD30B68036052
:101080004B6843608B688360CB68C360103010315D
:10109000103AF3D20C3205D351F8043B40F8043B2C
:1010A000043AF9D2043208D0D2071CBF11F8013B30
:1010B00000F8013B01D30B8803806046704700BFF6
:1010C000082A13D38B07B1D010F00303AED0C3F1BD
:1010D0000403D21ADB071CBF11F8013B00F8013BE7
:1010E000A4D331F8023B20F8023B9FE7043AD9D35E
:1010F000013A11F8013B00F8013BF9D20B7803707B
:101100004B7843708B788370604670470F4B1A683A
:1011100042F001021A6059680D4A0A405A601A6882
:1011200022F0847222F480321A601A6822F480223B
:101130001A605A6822F4FE025A604FF41F029A6045
:101140004FF00062034B9A60704700BF00100240EE
:101150000000FFF800ED00E010B44B880C79012C82
:1011600013D0022C22D0002836DDC01A126890421B
:10117000D4BF1B189B18002B38DD01220A71002BED
:10118000B8BF5B424B8010BC7047834206DAC01A7E
:1011900012689042D4BF1B189B18ECE7C01A526823
:1011A00052429042ACBF1B189B18E4E75C42A0423D
:1011B00009DA1844126852429042ACBFC3EB0003F4
:1011C000C3EB0203D7E7184452689042D4BFC3EB85
:1011D0000003C3EB0203CEE7184412685242904268
:1011E000ACBFC3EB0003C3EB0203C4E7002B02DB7D
:1011F00003220A71C3E702220A71C0E708B54FF45F
:10120000A27202490248FFF70BFF08BD8057000891
:1012100004020020002209E0930003F1006303F5BB
:10122000FE331968094B43F8221001320C2AF3DD12
:10123000002307E0064A52F82320044951F82310FE
:1012400011600133082BF5DD704700BF4803002013
:101250003400002008B5FFF7D1FFFFF7DBFF08BD22
:10126000194B9B7803F00303032B0AD0164B9B7892
:1012700013F0020F05D0154B1B6813B90122134B55
:101280001A60124B1B68012B01D000207047104AD6
:10129000537843F0010353700B4A527812F0040F55
:1012A000F3D0094A927802F00302032AEDD0064AED
:1012B000927812F0020FE8D00021044A116023F066
:1012C0000103034A5370E0E7580800209003002010
:1012D000040000203B4B9B7813F0100F18D0012224
:1012E000394B1A60384B1B68012B1FD0374B1B68DA
:1012F000012B41D0364A537823F008035370002362
:10130000324A1360334A13602F4A1360002070473B
:101310002C4B5B7813F0100FE4D02A4B9B7813F022
:10132000400FDFD00122294B1A60DBE7294B1B68F5
:101330003B2BDBDC242B11DC25494A7842F00402EC
:101340004A70A3F11402232A0ED821494A7842F0A8
:1013500008024A7001331F4A1360D7E71C494A78D4
:1013600022F004024A70ECE7382BF3DD18494A7882
:1013700022F008024A70EDE7164B1B683B2BB9DCE4
:10138000242B11DC12494A7842F004024A70A3F17E
:101390000B022C2A0ED80E494A7842F008024A70F5
:1013A00001330C4A1360B1E709494A7822F0080278
:1013B0004A70ECE7242BF3DD05494A7822F0040259
:1013C0004A70EDE75808002098030020A40300208D
:1013D00004000020B003002000B583B0184B93E850
:1013E000030002AB03E90300164B9B7803F00C03E8
:1013F0000C2B04D0134B9B7813F0040F13D1114B1B
:101400009B7803F00C030C2B04D00E4B9B7813F04D
:10141000080F0FD16A460C490020FFF79DFE0020FF
:1014200003B05DF804FB6A4607494FF4FA50FFF732
:1014300093FEF4E76A4604490448FFF78DFEEEE7A1
:10144000F85600085808002020000020C0E0FFFFE8
:101450002DE9F04F89B0B44B93E8030008AB03E9E2
:101460000300B24C204603F0A0FCFEF7F5FF8046D7
:101470000F46204603F088FCFEF7EEFF82468946C1
:10148000204603F0A3FCFEF7E7FFCDE902010022AE
:10149000002340463946FFF7D5FA38B10022002331
:1014A00050464946FFF7BAFA002851D100220023DE
:1014B00040463946FFF7B2FA88BB00220023404677
:1014C0003946FFF7A1FAA8BB00220023404639465F
:1014D000FFF7AEFA00283ED00022002350464946CE
:1014E000FFF7B0FA88B34FF0040B524629F00043DF
:1014F000404627F00041FFF7D7FA00228C4BFFF758
:1015000011F885A3D3E90023FFF736F9CDE90401EB
:1015100000230024CDE90034002425465AE00022AF
:10152000002350464946FFF76FFA0028C5D04FF018
:10153000020BDAE70022002350464946FFF778FA0B
:101540000028C1D04FF0010BCFE74FF0000BCCE7E4
:101550004FF0030BC9E74FF0000BC6E752464B466E
:10156000404607F10041FEF729FE02460B46DDE941
:101570000201FEF725FE6AA3D3E90023FEF7D2FF9E
:1015800005460E46CDE90056FFF766FA00F634022E
:1015900041F268039A422DD82A46334628463146FE
:1015A000FEF70EFECDE900010025012D00F083813C
:1015B000AB1E012B40F2CB8105EB45035E005D4B7A
:1015C0001E44DDE90001FFF747FA06AA3146FFF79E
:1015D000C3FD0134032C00F37182032CE5D801A371
:1015E00053F824F05D1500085F160008391700084D
:1015F000F11700080028B8BF404241F26703984243
:1016000040F35181A0F58355083D00220023DDE918
:101610000001FFF717FA60B12846FEF71DFF0246EA
:101620000B46DDE90001FEF7C9FDCDE9000100250B
:10163000BBE700220023DDE90001FFF7E5F908B967
:101640000025B2E72846FEF707FF02460B46DDE914
:101650000001FEF7B5FDCDE900010025A5E74246F2
:101660003B4650464946FEF7A9FD02460B46DDE9DA
:101670000201FEF7A5FD2AA3D3E90023FEF752FFDE
:1016800005460E46CDE90056FFF7E6F900F63402AE
:1016900041F268039A4209D82A4633462846314621
:1016A000FEF78EFDCDE9000101257EE70028B8BFD9
:1016B000404241F26703984240F3F780A0F583551A
:1016C000083D00220023DDE90001FFF7BBF960B10E
:1016D0002846FEF7C1FE02460B46DDE90001FEF793
:1016E0006DFDCDE9000101255FE700220023DDE962
:1016F0000001FFF789F908B9012556E72846FEF7EA
:10170000ABFE02460B46DDE90001FEF759FDCDE9CF
:101710000001012549E700BF182D4454FB21094071
:101720000000000000C05240005700085808002088
:10173000008066400800002052464B46404639462D
:10174000FEF73EFD02460B46DDE90201FEF738FDDD
:10175000B5A3D3E90023FEF7E5FE05460E46CDE925
:101760000056FFF779F900F6340241F268039A4215
:1017700009D82A46334628463146FEF721FDCDE9F1
:101780000001022511E70028B8BF404241F267037B
:10179000984240F38C80A0F58355083D0022002339
:1017A000DDE90001FFF74EF960B12846FEF754FE6F
:1017B00002460B46DDE90001FEF700FDCDE9000120
:1017C0000225F2E600220023DDE90001FFF71CF903
:1017D00008B90225E9E62846FEF73EFE02460B461A
:1017E000DDE90001FEF7ECFCCDE900010225DCE6B5
:1017F00052464B4640463946FEF7E0FC02460B4651
:10180000DDE90201FEF7DCFC87A3D3E90023FEF744
:1018100089FE05460E46CDE90056FFF71DF900F694
:10182000340241F268039A4209D82A4633462846D0
:101830003146FEF7C5FCCDE900010325B5E60028D9
:10184000B8BF404241F26703984232DDA0F58355AC
:10185000083D00220023DDE90001FFF7F3F860B145
:101860002846FEF7F9FD02460B46DDE90001FEF7CA
:10187000A5FCCDE90001032597E600220023DDE960
:101880000001FFF7C1F808B903258EE62846FEF7E8
:10189000E3FD02460B46DDE90001FEF791FCCDE9D0
:1018A0000001032581E600257FE601257DE602256E
:1018B0007BE6032579E6ABF10203012B13D9BBF1DB
:1018C000010F2AD0BBF1040F27D0DDE90001FFF79B
:1018D000C3F805EB4502530006AA574919444000D6
:1018E000FFF73AFC75E60022544BDDE90401FFF7EF
:1018F0008BF80028E3D00022514BDDE90001FEF710
:1019000011FE05EB45035E004B4B1E44FFF7A4F8A8
:1019100006AA3146FFF720FC5BE60022474BDDE9D3
:101920000401FFF771F80028CFD00022444BDDE915
:101930000001FEF7F7FD05EB45035E003E4B1E443C
:10194000FFF78AF806AA3146FFF706FC41E60022B7
:101950000023DDE90201FFF74DF800283FF42CAE2B
:10196000BBF1010F1CD0BBF1040F19D0ABF1020683
:10197000012E36D9BBF1010F64D0BBF1040F61D049
:10198000012E7CD905EB45035E002B4B1E44DDE99F
:101990000001FFF761F806AA3146FFF7DDFB18E604
:1019A0000022264BDDE90401FFF72EF80028DDD0E8
:1019B000022DDBD1DDE90001FFF74EF8FEF74CFD0B
:1019C0001BA3D3E90023FEF7ADFD05EB45035E0045
:1019D000194B1E44FFF740F806AA3146FFF7BCFB3F
:1019E000F7E50022154BDDE90401FFF70DF80028AB
:1019F000C0D0022DBED1DDE90001FFF72DF8FEF7C2
:101A00002BFD0BA3D3E90023FEF78CFD05EB45036B
:101A10005E00094B1E44FFF71FF806AA3146FFF788
:101A20009BFBD6E5AFF300800000000000C05240F1
:101A30009A9999999999E93F0800002000804640B9
:101A40000000E03F0022264BDDE90401FEF7DCFF49
:101A5000002895D0032D93D11FA3D3E90023DDE9FE
:101A60000001FEF75FFD05EB45035E001D4B1E44C4
:101A7000FEF7F2FF06AA3146FFF76EFBA9E500224A
:101A8000174BDDE90401FEF7BFFF00283FF47AAFF2
:101A9000032D7FF477AF10A3D3E90023DDE9000124
:101AA000FEF740FD05EB45035E000E4B1E44FEF7BE
:101AB000D3FF06AA3146FFF74FFB8AE5DDE90401B3
:101AC000FEF7CAFF02465946074802F057FF0020BA
:101AD00009B0BDE8F08F00BF666666666666E63FE1
:101AE00000804640080000203059000800B583B04F
:101AF000214B93E8030002AB03E903001F4B5B7823
:101B000013F0020F07D01D4B5B7813F0040F02D0C7
:101B100001221B4B1A601A4B1B68012B16D0174B66
:101B20005B7813F0020F1FD10020164B1860144B86
:101B300018606A461449FFF70FFB124B19681348E7
:101B400002F01CFF002003B05DF804FB0D4B1B6886
:101B50001D2BE4DC6A460C490D48FFF7FDFA094AE3
:101B6000136801331360E8E76A46074941F2883099
:101B7000FFF7F2FAE1E700BFF85600085808002026
:101B8000B4030020A803002026000020C458000849
:101B900078ECFFFF08B51D4B5B7813F0100F07D0F2
:101BA0001A4B9B7813F0400F02D00122184B1A6099
:101BB000174B1B68012B12D0012B1FD0154A5378ED
:101BC00023F0020353700023134A1360104A13607A
:101BD000114B1968114802F0D1FE002008BD0E4AD1
:101BE0001268A2F10B011C29E6D80A494B7843F090
:101BF00002034B700132084B1A60E9E7064B1B6881
:101C00000A2BDBDC0133044A1360E1E758080020AB
:101C10009403002004000020AC0300201C5900089D
:101C200010B584B0534B93E8030004AA02E9030003
:101C3000103393E803008DE803004F4B9B7803F0CB
:101C40000303032B52D04C4B5B7813F0080F0AD0E0
:101C5000494B9B7813F0200F05D0484B1B6813B9F4
:101C60000122464B1A604FF40051012002F024FE7D
:101C700004464FF48041012002F01EFE0246214638
:101C80003F4802F07BFE3F4C3C4B1A6821683E48BF
:101C900002F074FE384B997801F00301032914BF58
:101CA00000210121394802F069FE2368012B25D06B
:101CB000324B1B68012B2FD0304B1B68022B36D0C8
:101CC0002E4B1B68012B40D02B4B9B7803F00C0351
:101CD0000C2B48D00020294B18602A4B186002AA10
:101CE0002B49FFF739FA002004B010BD254B1B68C3
:101CF000002BA8D10122234B1A60A4E74FF48041A6
:101D0000012002F0D9FD0128D2D102AA20494FF4C6
:101D10007A60FFF721FAE6E74FF40051012002F064
:101D2000CBFD0028C8D10222144B1A60DBE74FF428
:101D30008041012002F0C0FD0128C1D102AA14494E
:101D400040F6B830FFF708FACDE74FF40051012014
:101D500002F0B2FD0128B7D16A460D49A0F6B930AC
:101D6000FFF7FAF9BFE702AA09494FF4FA60FFF753
:101D7000F3F9B8E7F856000858080020A00300203F
:101D8000D85800089C030020EC5800080C590008A3
:101D90002C00002008B5FFF75DFA002008BD08B54B
:101DA000FFF756FB034608B1184608BDFFF714FBC2
:101DB00003460028F8D1FFF753FA03460028F3D171
:101DC000FFF794FE03460028EED1FFF729FF0346F4
:101DD0000028E9D1FFF7DEFE03460028E4D1FFF733
:101DE00079FA0346E0E77047FEE7FEE7FEE7FEE725
:101DF000704770477047000008B502F081F901F0A4
:101E0000B8FB024A13680133136008BD5408002070
:101E100008B5024B186B01F099FC08BD5C0100206D
:101E200008B5024B586B01F091FC08BD9C010020E5
:101E300008B5024802F0D9F808BD00BF9C01002097
:101E400008B5024802F0D1F808BD00BF5C010020CF
:101E500000B583B01C4B9A6942F001029A619B69FC
:101E600003F001030193019B032001F0D5FA002246
:101E700011466FF00B0001F0EDFA002211466FF0F1
:101E80000A0001F0E7FA002211466FF0090001F0A4
:101E9000E1FA002211466FF0040001F0DBFA0022A3
:101EA00011466FF0030001F0D5FA002211466FF0E1
:101EB000010001F0CFFA002211464FF0FF3001F08F
:101EC000C9FA03B05DF804FB0010024010B588B0F9
:101ED0000368394A934204D0384A934255D008B037
:101EE00010BD374B9A6942F008029A619B6903F072
:101EF00008030193019B304A1368C3F30E03136078
:101F00004FF44073049311230593022307932D4C40
:101F100004A9204601F0C0F8E36843F44073E3608D
:101F2000284B9B6803F44073B3F5407FF8D1254AF2
:101F3000D36823F44073D360224B9B6813F4407F33
:101F4000FAD14FF4407304931223059303230793AC
:101F500004A91C4801F0A0F81B4A536843F002038F
:101F60005360174BDA6942F40012DA61DB6903F45B
:101F700000130293029B104B1A6842F400421A604D
:101F80001A68C2F30E021A60A9E74FF44063049383
:101F9000122305930323079304A90A4801F07CF850
:101FA000074BDA6942F48002DA61DB6903F48003EB
:101FB0000393039B93E700BF005400400058004088
:101FC00000100240000C014000000140F0B58DB04F
:101FD0000368724A934209D00446714A93422FD053
:101FE000704A934200F086800DB0F0BD6E4B9A6946
:101FF00042F480429A619A6902F480420192019A05
:102000009A6942F004029A619B6903F00403029307
:10201000029B4FF4007308930223099303230B934D
:10202000624C08A9204601F037F84FF4806308930A
:10203000002309930A9308A9204601F02DF8D3E75D
:10204000594EF36943F40033F361F36903F4003349
:102050000393039BB36943F00403B361B36903F0D3
:1020600004030493049B042308930223099303238A
:102070000B934E4F08A9384601F00EF80823089339
:10208000002509950A9508A9384601F005F87369F5
:1020900043F001037361736903F001030593059B2A
:1020A000434E444B336010277760B5608023F36064
:1020B00035617561B561F561304601F071FA2663ED
:1020C000746201222946112001F0C4F9112001F0A7
:1020D00005FA2A462946384601F0BCF9384601F08F
:1020E000FDF901222946262001F0B4F9262001F04D
:1020F000F5F979E72C4BDA6942F48022DA61DA6982
:1021000002F480220692069A9A6942F010029A61BD
:102110009B6903F010030793079B4FF480630893B8
:102120000223099303230B93234D08A9284600F0AB
:10213000B3FF4FF400630893002609960A9608A996
:10214000284600F0A9FF1D4A536823F0300343F0EE
:10215000100353601A4D1B4B2B606E60AE608023E2
:10216000EB602E616E61AE614FF40053EB61284667
:1021700001F016FA65636C62324631460D2001F0BB
:1021800069F90D2001F0AAF901223146272001F05A
:1021900061F9272001F0A2F926E700BF00380140CD
:1021A0000044004000480040001002400008014088
:1021B000F0030020800002400010014000000140B8
:1021C000B803002030000240FEE7000030B583B0C5
:1021D0000446002856D0236813B113F00F0F57D0D0
:1021E000236813F0010F75D0636853B1B3F5803FD6
:1021F00007D0B3F5A02F04D040F21511C348FFF764
:10220000E3FFC34B5B6803F00C03042B4BD0C04BC4
:102210005B6803F00C03082B40D06368B3F5803F84
:1022200000F09E80002B40F0A18003F1804303F575
:1022300004331A6822F480321A601A6822F4802269
:102240001A606368002B00F0AB8001F061FF054667
:102250004FF4003393FAA3F3AD4B1A684FF40033F5
:1022600093FAA3F3B3FA83F303F01F0322FA03F301
:1022700013F0010F2ED101F04BFF401B6428E7D96A
:10228000032021E34FF48771A048FFF79DFFA2E7E9
:1022900040F20F119D48FFF797FFA1E79C4B5B6849
:1022A00013F4803FB9D04FF4003393FAA3F3984B63
:1022B0001A684FF4003393FAA3F3B3FA83F303F0ED
:1022C0001F0322FA03F313F0010F03D06368002BFE
:1022D00000F0F382236813F0020F00F0AD80236951
:1022E000012B04D940F249118848FFF76DFF63695B
:1022F0001F2B72D8864B5B6813F00C0F78D0844B81
:102300005B6803F00C03082B6DD02369002B00F0F1
:10231000D680012292FAA2F3B3FA83F39B0003F171
:10232000844303F584031A6001F0F2FE054602239C
:1023300093FAA3F3764B1A68022393FAA3F3B3FA42
:1023400083F303F01F0322FA03F313F0010F40F0AD
:10235000A78001F0DDFE401B0228E8D90320B3E28C
:102360006B4A136843F4803313606AE7B3F5A02F18
:1023700009D0674B1A6822F480321A601A6822F476
:1023800080221A605DE703F18043A3F53C331A68AD
:1023900042F480221A601A6842F480321A6050E7D0
:1023A00001F0B6FE05464FF4003393FAA3F3584B01
:1023B0001A684FF4003393FAA3F3B3FA83F303F0EC
:1023C0001F0322FA03F313F0010F83D001F0A0FEE4
:1023D000401B6428E7D9032076E24FF4A5714B48EF
:1023E000FFF7F2FE86E74A4B5B6813F4803F8CD11F
:1023F000022393FAA3F3464B1A68022393FAA3F33A
:10240000B3FA83F303F01F0322FA03F313F0010F6F
:1024100004D02369012B01D0012055E23C48036818
:1024200023F0F8036169F82292FAA2F2B2FA82F27A
:1024300001FA02F213430360236813F0080F6ED011
:10244000A369012B04D94FF4C5713048FFF7BCFED6
:10245000A369002B00F09080012292FAA2F3B3FA54
:1024600083F32C4941F8232001F052FE0546022354
:1024700093FAA3F293FAA3F2254A526A93FAA3F3CA
:10248000B3FA83F303F01F0322FA03F313F0010FEF
:1024900042D101F03DFE401B0228E8D9032013E29F
:1024A0001B48036823F0F8036169F82292FAA2F24C
:1024B000B2FA82F201FA02F213430360BCE701238D
:1024C00093FAA3F3B3FA83F39B0003F1844303F578
:1024D000840300221A6001F01BFE0546022393FAD2
:1024E000A3F30B4B1A68022393FAA3F3B3FA83F313
:1024F00003F01F0322FA03F313F0010F9CD001F045
:1025000007FE401B0228E9D90320DDE14C590008F1
:102510000010024080044242012001F0FFFD2368C8
:1025200013F0040F00F0CE80E368012B06D9052BD1
:1025300004D040F2B711B648FFF746FEB54BDA6952
:1025400042F08052DA61DB6903F080530193019B12
:10255000B14A136843F48073136001F0D9FD054656
:10256000AD4B1B6813F4807F2BD101F0D1FD401BD4
:102570006428F5D90320A7E1012393FAA3F3B3FA62
:1025800083F30021A54A42F8231001F0C1FD05465E
:10259000022393FAA3F293FAA3F29E4A526A93FAA1
:1025A000A3F3B3FA83F303F01F0322FA03F313F048
:1025B000010FB4D001F0ACFD401B0228E8D9032084
:1025C00082E1E368012B13D0C3B903F1804303F523
:1025D00004331A6A22F001021A621A6A22F0040213
:1025E0001A62E368002B44D001F092FD054631E009
:1025F000884A136A43F001031362F2E7052B09D0FE
:10260000844B1A6A22F001021A621A6A22F004024A
:102610001A62E6E77F4B1A6A42F004021A621A6AEB
:1026200042F001021A62DCE77A4B1A6A022393FA3B
:10263000A3F3B3FA83F303F01F0322FA03F313F0B7
:10264000010F3FD101F064FD401B41F288339842F5
:1026500000F23581022393FAA3F293FAA3F3B3FABB
:1026600083F35B0943F00203022BDDD0694B5A6A06
:10267000DCE701F04DFD054615E0664B1A6A0223C2
:1026800093FAA3F3B3FA83F303F01F0322FA03F3DD
:1026900013F0010F16D001F03BFD401B41F28833CF
:1026A000984200F20E81022393FAA3F293FAA3F365
:1026B000B3FA83F35B0943F00203022BDDD0554BE1
:1026C0005A6ADCE7E369022B37D8E369002B00F094
:1026D000FA80504A526802F00C02082A00F0F68094
:1026E000022B30D04FF0807393FAA3F3B3FA83F345
:1026F0009B0003F1844303F5840300221A6001F078
:1027000007FD04464FF0007393FAA3F3414B1A6898
:102710004FF0007393FAA3F3B3FA83F303F01F03AC
:1027200022FA03F313F0010F00F0C58001F0F0FC72
:10273000001B0228E6D90320C6E040F247213448B6
:10274000FFF742FDC1E7236A3BB1B3F5803F04D0F8
:102750004FF414712E48FFF737FD636A73B3B3F576
:10276000802F2BD0B3F5002F28D0B3F5402F25D0E4
:10277000B3F5801F22D0B3F5A01F1FD0B3F5C01F43
:102780001CD0B3F5E01F19D0B3F5001F16D0B3F578
:10279000101F13D0B3F5201F10D0B3F5301F0DD08C
:1027A000B3F5401F0AD0B3F5501F07D0B3F5601F33
:1027B00004D040F251211648FFF706FD4FF0807318
:1027C00093FAA3F3B3FA83F39B0003F1844303F575
:1027D000840300221A6001F09BFC05464FF0007351
:1027E00093FAA3F30B4B1A684FF0007393FAA3F319
:1027F000B3FA83F303F01F0322FA03F313F0010F7C
:102800000ED001F085FC401B0228E7D903205BE0D5
:102810004C59000800100240007000408004424201
:10282000236AB3F5803F32D029494B6823F47413EF
:10283000226A606A024313434B604FF0807393FA3D
:10284000A3F3B3FA83F39B0003F1844303F58403FA
:1028500001221A6001F05CFC04464FF0007393FA09
:10286000A3F31B4B1A684FF0007393FAA3F3B3FA68
:1028700083F303F01F0322FA03F313F0010F18D1BF
:1028800001F046FC001B0228E7D903201CE0A368E6
:102890003BB1B3F5003F04D040F267210D48FFF78C
:1028A00093FC0B4A536823F40033A1680B43536035
:1028B000BAE7002008E0002006E0012004E0032041
:1028C00002E0032000E0002003B030BD0120FBE760
:1028D000001002404C59000810B586B01C4C94E81A
:1028E0000F000DF1180E0EE90F00238AADF8043029
:1028F000184B5B6803F00C02082A26D103F470120F
:102900004FF4701191FAA1F1B1FA81F1CA40724409
:1029100012F8100C13F4803F03D10F4B03FB00F0AF
:1029200014E00C4B5B6803F400334FF4003292FA6E
:10293000A2F2B2FA82F2D340734413F8142C074B7C
:10294000B3FBF2F303FB00F000E0044806B010BD57
:10295000105700080010024000093D0000127A00E4
:1029600070B50D460446C0B1236813F00F0F1AD09E
:10297000022D1ED89B4B1B6803F007039D421ED9F6
:10298000984A136823F007032B431360136803F07E
:1029900007039D4213D0012070BD4FF42F71924860
:1029A000FFF712FCE0E740F2BD218F48FFF70CFC77
:1029B000DEE740F2BE218C48FFF706FCDAE7236829
:1029C00013F0020F1DD0A368A3B1802B12D0902B5F
:1029D00010D0A02B0ED0B02B0CD0C02B0AD0D02BF7
:1029E00008D0E02B06D0F02B04D040F2D7217E484F
:1029F000FFF7EAFB7D4A536823F0F003A1680B431D
:102A00005360236813F0010F00F084806368022B89
:102A100032D86368012B35D0022B48D0022292FABB
:102A2000A2F2724A1168022292FAA2F2B2FA82F279
:102A300002F01F0221FA02F212F0010F00F0D08022
:102A40006A494A6822F0030213434B6001F060FBBD
:102A500006466368012B3FD0022B4CD0634B5B686A
:102A600013F00C0F56D001F053FB801B41F288335A
:102A70009842F3D9032070BD40F2DE215A48FFF797
:102A8000A3FBC6E74FF4003292FAA2F2574A11684C
:102A90004FF4003292FAA2F2B2FA82F202F01F026E
:102AA00021FA02F212F0010FCAD1012070BD4FF0DD
:102AB000007292FAA2F24D4A11684FF0007292FA37
:102AC000A2F2B2FA82F202F01F0221FA02F212F02E
:102AD000010FB5D1012070BD444B5B6803F00C03BE
:102AE000042B17D001F014FB801B41F2883398426D
:102AF000F2D9032070BD3D4B5B6803F00C03082B3B
:102B000008D001F005FB801B41F288339842F2D9CE
:102B1000032070BD334B1B6803F007039D420CD2AA
:102B2000304A136823F007032B431360136803F044
:102B300007039D4201D0012070BD236813F0040FEC
:102B400019D0E36883B1B3F5806F0DD0B3F5A06FF2
:102B50000AD0B3F5C06F07D0B3F5E06F04D040F2F0
:102B600032312148FFF730FB204A536823F4E063F9
:102B7000E1680B435360236813F0080F1AD02369F0
:102B800083B1B3F5806F0DD0B3F5A06F0AD0B3F564
:102B9000C06F07D0B3F5E06F04D040F2393112486E
:102BA000FFF712FB114A536823F46053216943EA8B
:102BB000C1035360FFF790FE0C4B5B6803F0F0031A
:102BC000F02292FAA2F2B2FA82F2D340084AD35C1F
:102BD000D840084B1860002001F06CFA002070BD4E
:102BE000012070BD002002404C5900080010024036
:102BF0006857000800000020014B1868704700BFAC
:102C00000000002008B5FFF7F7FF074B5B6803F4EF
:102C1000E0634FF4E06292FAA2F2B2FA82F2D34099
:102C2000024AD35CD84008BD001002407857000823
:102C300008B5FFF7E1FF074B5B6803F460534FF4FF
:102C4000605292FAA2F2B2FA82F2D340024AD35C04
:102C5000D84008BD00100240785700087047704700
:102C600070477047704710B5044603681A6912F040
:102C7000020F11D0DA6812F0020F0DD06FF00202CD
:102C80001A610123037603689B6913F0030F70D068
:102C9000FFF7E6FF0023237623681A6912F0040F7A
:102CA00012D0DA6812F0040F0ED06FF004021A612D
:102CB0000223237623689B6913F4407F5FD020466C
:102CC000FFF7CEFF0023237623681A6912F0080F5E
:102CD00012D0DA6812F0080F0ED06FF008021A61F5
:102CE000042323762368DB6913F0030F4ED02046BC
:102CF000FFF7B6FF0023237623681A6912F0100F3E
:102D000012D0DA6812F0100F0ED06FF010021A61B4
:102D1000082323762368DB6913F4407F3DD02046E7
:102D2000FFF79EFF0023237623681A6912F0010F34
:102D300003D0DA6812F0010F36D123681A6912F055
:102D4000800F03D0DA6812F0800F34D123681A693B
:102D500012F0400F03D0DA6812F0400F32D123682E
:102D60001A6912F0200F03D0DA6812F0200F30D168
:102D700010BDFFF774FF2046FFF773FF8AE7204678
:102D8000FFF76DFF2046FFF76CFF9BE72046FFF73C
:102D900066FF2046FFF765FFACE72046FFF75FFFC1
:102DA0002046FFF75EFFBDE76FF001021A61204683
:102DB000FFF754FFC1E76FF080021A61204600F070
:102DC000DDFBC3E76FF040021A612046FFF74AFFC0
:102DD000C5E76FF020021A61204600F0CEFBC7E77E
:102DE000F0B583B00446036813F0130F30D02368A6
:102DF00013F0010F5BD0636863B1B3F5807F09D036
:102E0000B3F5007F06D0B3F5407F03D08421574847
:102E1000FFF7DAF9564BDA6942F08052DA61DB6982
:102E200003F080530193019B524A136843F480736B
:102E3000136001F06DF905464E4B1B6813F4807F5B
:102E40000BD101F065F9401B6428F5D9032059E046
:102E50007E214648FFF7B8F9C9E7454B1B6A13F4D2
:102E600040731DD0626802F44072934218D040480B
:102E7000016A21F440764FF4803393FAA3F2B2FA58
:102E800082F23D4D012745F8227093FAA3F3B3FA7D
:102E900083F3002245F82320066211F0010F33D19D
:102EA000334A136A23F4407361680B431362236847
:102EB00013F0020F15D0A36863B1B3F5804F09D0AA
:102EC000B3F5004F06D0B3F5404F03D0BA212748E1
:102ED000FFF77AF9264A536823F44043A1680B436D
:102EE0005360236813F0100F3ED0E368B3F5800FF2
:102EF00000D08BBB1E4A536823F48003E1680B4368
:102F00005360002003B0F0BD01F002F9054614E063
:102F1000174B1A6A022393FAA3F3B3FA83F303F06D
:102F20001F0322FA03F313F0010FB9D101F0F0F8F7
:102F3000401B41F28833984214D8022393FAA3F23B
:102F400093FAA3F3B3FA83F35B0943F00203022B72
:102F5000DED0074B5A6ADDE74FF48B710348FFF769
:102F600033F9C7E70320CDE70020CBE784590008F9
:102F70000010024000700040000442427047000010
:102F8000002844D010B504460268234B9A4203D06F
:102F9000A6212248FFF718F96368062B28D8A368F2
:102FA000B3F5805F29D22368DA6812F0010F03D0ED
:102FB000DB6813F0020F2CD1637B1BB30223637316
:102FC000236845F255521A602268536823F00703BC
:102FD00061680B4353602268936823F47F6323F096
:102FE0000F03A1680B43936001236373002010BD9E
:102FF000A7210A48FFF7E8F8D1E7A8210748FFF71B
:10300000E3F8D0E723732046FFF7B8FFD6E70120A7
:103010007047012010BD00BF00300040BC590008BF
:10302000037B012B0FD00223437303684CF6CC4281
:103030001A6003684AF6AA221A6001234373002328
:103040000373184670470220704738B5037B012B85
:1030500001D1022038BD04460123037302234373C8
:1030600001F056F805462368DA6812F0020F0AD01C
:1030700001F04EF8401BB0F57A7FF4D9032060735D
:103080000023237338BD4AF6AA221A600123637312
:103090000020207338BD00002DE9F04383B0804646
:1030A0000F46B84B984213D003F5806398420FD077
:1030B00003F5806398420BD003F58063984207D0F4
:1030C00003F58063984203D0CF21AF48FFF77CF827
:1030D0003B884BB37B68012B22D9112B20D0022BCC
:1030E0001ED0122B1CD0A94A934219D002F580128F
:1030F000934215D002F58012934211D0A2F5F81236
:1031000093420DD002F58012934209D002F580124D
:10311000934205D0032B03D0D1219B48FFF754F8ED
:103120004FF000094E467BE0D0219748FFF74CF85E
:10313000D0E7002B00F0C380012B06D1FB68013BD8
:10314000022B00F2C980D7F80C90FF2C00F2F98016
:103150004046FF2C00F2F880B20003680F21914036
:1031600023EA010309FA02F2134303607B6813F0B8
:10317000805F54D0864B9A6942F001029A619B6944
:1031800003F001030193019BB208911C814B53F89A
:10319000213006F0030189000F20884023EA000354
:1031A0007848804500F0D68000F58060804500F0CA
:1031B000D38000F58060804500F0D08000F580600D
:1031C000804500F0C580042000FA01F10B43023273
:1031D000704941F822307B6813F4803F00F0C080D2
:1031E0006D4A1368234313607B6813F4003F00F0BB
:1031F000BD80694A5368234353607B6813F4801F82
:1032000000F0BA80644A9368234393607B6813F4A8
:10321000001F00F0C780604AD3681C43D4600136A9
:103220000F2E00F2C5800125B5403C682C40A54218
:10323000F5D1544B984513D003F5806398450FD0D2
:1032400003F5806398450BD003F58063984507D05C
:1032500003F58063984503D0DF214B48FEF7B4FFA8
:103260007B68122B4FD010D8022B3FD07FF661AF76
:10327000032B60D0112B7FF468AFFB68013B022B5E
:103280002FD8FB6803F104095FE7444A934216D044
:103290000CD9434A934212D002F5803293420ED0A9
:1032A000A2F5801293427FF450AF08E0A2F580129D
:1032B000934204D002F5803293427FF446AFBB685C
:1032C000022B2DD8BB68002B38D0012B2ED0C8F88C
:1032D00014504FF0080938E7E7212B48FEF774FF38
:1032E00031E7EE212848FEF76FFFCAE7FB68013B94
:1032F000022B03D8FB6803F1080926E7F5212248D1
:10330000FEF762FFF6E7FB68013B022B03D8FB6880
:1033100003F10C0919E7FC211B48FEF755FFF6E7FE
:1033200040F209111848FEF74FFFCBE7C8F81050DC
:103330004FF0080909E74FF0000906E74FF00409CC
:1033400003E708F1040004E7A6F10802920004E78D
:10335000032039E7002037E7012035E7022033E773
:103360000D4A136823EA040313603DE70A4A5368D1
:1033700023EA0403536040E7074A936823EA0403FF
:10338000936043E700080140F45900080000111061
:103390000010024000000140000401400000211024
:1033A00000003110044AD36823EA0404D46036E7ED
:1033B00003B0BDE8F08300BF0004014038B5054606
:1033C0000C4621B1AB681C4207D1002038BD4FF438
:1033D000E2710348FEF7F8FEF4E7012038BD00BFB4
:1033E000F459000870B5064615460C4651B1012D3A
:1033F00004D940F2E5110748FEF7E6FE45B924047A
:10340000346170BD4FF4F2710248FEF7DDFEEEE765
:10341000346170BDF459000810B50446C31E042B76
:103420000FD80A4AD36823F4E0631B041B0C240260
:1034300004F4E064234343F0BF6343F40033D360F8
:1034400010BDBA210248FEF7BFFEEAE700ED00E03A
:103450002C5A000870B505460C4616460F2A24D88B
:103460000F2C27D81A4BDB68C3F30223C3F10702E2
:10347000042A28BF0422191D062920D9033B012153
:1034800001FA02F2013A14409C4001FA03F3013BB5
:1034900033401C43002D14DB2401E4B205F16045E8
:1034A00005F5614585F8004370BDD2210948FEF756
:1034B0008BFED5E7D3210748FEF786FED2E700232F
:1034C000DDE705F00F052401E4B2034B5C5570BD48
:1034D00000ED00E02C5A000814ED00E010B5041EC9
:1034E00009DB620904F01F04012303FA04F4044B0E
:1034F00043F8224010BDE6210248FEF765FEF0E7E2
:1035000000E100E02C5A00080138B0F1807F0AD2B7
:10351000064B5860F021064A82F82310002098607C
:1035200007221A6070470120704700BF10E000E0DA
:1035300000ED00E010B50446042800D038B9042C92
:103540000BD0094A136823F00403136010BD4FF435
:10355000DF710648FEF738FEF1E7034A136843F0CF
:103560000403136010BD00BF10E000E02C5A0008F7
:10357000704708B5FFF7FCFF08BD7047704710B4EF
:10358000046863604368102B05D003689960036882
:10359000DA6010BC704703689A600368D960F8E786
:1035A000002800F08D8010B504460368454A934218
:1035B00015D01432934212D0143293420FD01432E9
:1035C00093420CD01432934209D01432934206D065
:1035D0001432934203D0B5213B48FEF7F5FD6368F2
:1035E00043B1102B06D0B3F5804F03D0B621364837
:1035F000FEF7EAFDA368402B01D0002B56D1E3680B
:10360000802B01D0002B56D123694BB1B3F5807FBD
:1036100006D0B3F5007F03D0B9212B48FEF7D4FDC7
:1036200063694BB1B3F5806F06D0B3F5006F03D07B
:10363000BA212548FEF7C8FDA3692BB1202B03D082
:10364000BB212148FEF7C0FDE36963B1B3F5805F9C
:1036500009D0B3F5005F06D0B3F5405F03D0BC21BD
:103660001948FEF7B1FD94F821300BB984F82030E9
:10367000022384F8213021680A6822F47F5222F064
:1036800030026368A0680343E06803432069034392
:1036900060690343A0690343E069034313430B607C
:1036A00000206063012384F8213010BDB721064853
:1036B000FEF78AFDA3E7B8210348FEF785FDA3E7DF
:1036C0000120704708000240645A0008F8B590F8DD
:1036D0002040012C35D01D4616460F4604460123D6
:1036E00080F82030022380F821306A1E4FF6FE73E6
:1036F0009A4220D82068036823F0010303602B4618
:10370000324639462046FFF73AFF2268136843F0F5
:10371000020313602268136843F0040313602268F5
:10372000136843F0080313602268136843F0010331
:1037300013600020F8BD40F261110348FEF744FD1C
:10374000D8E70220F8BD00BF645A000810B504464F
:10375000984B1A68036898498B4214D014318B42F5
:1037600032D014318B4231D014318B4231D01431EC
:103770008B4231D014318B4202D04FF0006103E014
:103780004FF4000100E0082111423CD01A6812F009
:10379000080F38D01A6822F008021A602368864A97
:1037A00093421FD01432934245D01432934244D0F6
:1037B0001432934244D01432934244D01432934290
:1037C0000DD04FF000620EE08021DDE74FF4006184
:1037D000DAE74FF40041D7E74FF40021D4E74FF484
:1037E000000200E00822734B5A60636B43F0010350
:1037F0006363042384F82130002384F82030236B92
:103800000BB1204698476B4B1A6823686A498B4274
:103810001FD014318B4241D014318B4240D014312F
:103820008B4240D014318B4240D014318B420DD0AA
:103830004FF080610EE08022D5E74FF40062D2E7BE
:103840004FF40042CFE74FF40022CCE74FF4800161
:1038500000E00421114239D01A6812F0040F35D06B
:103860001A6812F0200F03D11A6822F004021A60BD
:103870002368514A93421FD0143293423ED01432EF
:1038800093423DD0143293423DD0143293423DD006
:10389000143293420DD04FF080620EE04021D9E700
:1038A0004FF48061D6E74FF48041D3E74FF4802195
:1038B000D0E74FF4800200E004223E4B5A6011230F
:1038C00084F82130E36A0BB120469847394B1A68D7
:1038D000236839498B421FD014318B4241D01431B7
:1038E0008B4240D014318B4240D014318B4240D0B7
:1038F00014318B420DD04FF000710EE04022DCE716
:103900004FF48062D9E74FF48042D6E74FF480222B
:10391000D3E74FF4001100E0022111423ED01A68B3
:1039200012F0020F3AD01A6812F0200F03D11A6871
:1039300022F002021A6023681F4A93421FD01432F9
:1039400093422CD0143293422BD0143293422BD07A
:10395000143293422BD0143293420DD04FF00072A8
:103960000EE02021D9E74FF40071D6E74FF4005163
:10397000D3E74FF40031D0E74FF4001200E0022209
:103980000C4B5A60636B6363012384F8213000237E
:1039900084F82030A36A0BB12046984710BD20223E
:1039A000EEE74FF40072EBE74FF40052E8E74FF414
:1039B0000032E5E7000002400800024090F839308C
:1039C000DBB2122B03D0322B01D002207047836868
:1039D000B3F5805F16D00268036A591C01621B7838
:1039E0005360C38C013B9BB2C384DBB90268D368CC
:1039F00023F08003D3600268D36843F04003D360B0
:103A000000207047036A02681B88C3F308035360F1
:103A100003691BB9036A02330362E2E7036A0133F5
:103A20000362DEE7002070472DE9F0470546426853
:103A30007D4B9A4200F29980EB683BB1B3F5005F91
:103A400004D040F253717948FEF7BEFB2B6953B1A5
:103A5000B3F5806F07D0B3F5C06F04D040F2547156
:103A60007248FEF7B1FB6B6933F00C0200D123B949
:103A700040F255716D48FEF7A7FB2A68136923F4DD
:103A80004053E9680B431361AB682A6913436A69C1
:103A900013432968CA6822F4B05222F00C0213437F
:103AA000CB602A68536923F44073A9690B435361BF
:103AB000D5F800805E4B98455DD0FFF7A3F800EB8A
:103AC000800000EB80006C68A400B0FBF4F4594F58
:103AD000A7FB043464092601FFF794F800EB80008B
:103AE00000EB80006C68A400B0FBF4FAFFF78AF8E2
:103AF00000EB800000EB80006C68A400B0FBF4F4E5
:103B0000A7FB043464094FF0640909FB14A42401E1
:103B10003234A7FB0434640904F0F0043444FFF7A2
:103B200071F800EB800000EB80006E68B600B0FB1F
:103B3000F6F6FFF767F800EB800000EB80006B689B
:103B40009B00B0FBF3F0A7FB0030400909FB1069B4
:103B50004FEA091909F13209A7FB0937C7F34317DF
:103B60002744C8F80870BDE8F08740F252712F482A
:103B7000FEF72AFB60E7FFF75BF800EB800000EB45
:103B800080006C68A400B0FBF4F42A4FA7FB043457
:103B900064092601FFF74CF800EB800000EB800081
:103BA0006C68A400B0FBF4FAFFF742F800EB800069
:103BB00000EB80006C68A400B0FBF4F4A7FB0434B5
:103BC00064094FF0640909FB14A424013234A7FBF3
:103BD0000434640904F0F0043444FFF729F800EBDE
:103BE000800000EB80006E68B600B0FBF6F6FFF7D1
:103BF0001FF800EB800000EB80006B689B00B0FBBF
:103C0000F3F3A7FB03235B0909FB13694FEA0919C7
:103C100009F13209A7FB0937C7F343172744C8F84E
:103C20000870BDE8F08700BF20AA44009C5A000835
:103C3000003801401F85EB51002871D010B50446B3
:103C400083690BB30368374A93420CD0A2F57442E0
:103C5000934208D002F58062934204D040F20711EB
:103C60003148FEF7B1FAA369FBB1B3F5807F1CD0F0
:103C7000B3F5007F19D0B3F5407F16D04FF48471AF
:103C80002948FEF7A1FA10E00368264A93420CD0B7
:103C9000A2F57442934208D002F58062934204D0A8
:103CA0004FF486712048FEF78FFAA3683BB1B3F555
:103CB000805F04D04FF487711B48FEF785FAE369F3
:103CC00013BB94F839302BB3022384F839302268BF
:103CD000D36823F40053D3602046FFF7A5FE226883
:103CE000136923F4904313612268536923F02A0374
:103CF00053612268D36843F40053D3600020E0632B
:103D0000012384F8393010BD40F20F110648FEF748
:103D10005BFAD6E784F838302046FEF757F9D3E748
:103D200001207047003801409C5A000810B590F8F7
:103D30003940E4B2012C03D0222C01D0022010BD66
:103D4000002936D0002A36D090F83830012B34D0F4
:103D5000012380F8383001628284C2840023C36367
:103D600090F83930DBB2222B1FD0122380F8393083
:103D700013460446026B12489062226B1148D062CF
:103D8000226B1148106322680432206BFFF79EFCFF
:103D900023686FF040021A602268536943F0800381
:103DA0005361002084F8380010BD322380F8393088
:103DB000DEE7012010BD012010BD022010BD00BFB4
:103DC000653E0008C33E0008CD3F000810B590F8DE
:103DD0003940E4B2012C03D0122C01D0022010BDD6
:103DE000002932D0002A32D090F83830012B30D060
:103DF000012380F83830816282850023C36390F804
:103E00003930DBB2122B1CD0222380F83930134614
:103E10000A460446416B10488862616B0F48C862CD
:103E2000616B0F48086321680431606BFFF74EFC3B
:103E30002268536943F040035361002084F838003E
:103E400010BD322380F83930E1E7012010BD012098
:103E500010BD022010BD00BFCD3E0008C13F0008CC
:103E6000CD3F000808B5436A0268126812F0200FBF
:103E70000CD10022DA8419684A6922F080024A6172
:103E80001A68D36843F04003D36008BD184601F0B8
:103E9000FDFB08BD08B50268D36823F04003D3607A
:103EA00090F83930DBB2322B06D0012380F839305C
:103EB00001F0ECFB002008BD222380F83930F7E741
:103EC000704708B5406AFFF7FBFF08BD08B5436AB5
:103ED0000268126812F0200F0ED10022DA851968EC
:103EE0004A6922F040024A6193F83920D2B2322A5C
:103EF00006D0012283F83920184601F0A9FB08BD3D
:103F0000122283F83920F7E708B590F83930DBB290
:103F1000222B03D0322B01D0022008BD8368B3F5D9
:103F2000805F29D00369002B3AD1836A5A1C8262D0
:103F3000026852681A70C38D013B9BB2C385002B87
:103F40003BD10268D36823F02003D36090F8393066
:103F5000DBB2322B2DD00268D36823F48073D36098
:103F60000268536923F001035361012380F839305B
:103F700001F06EFB002008BD836A026942B9026845
:103F80005268C2F308021A80836A02338362D2E75E
:103F900002685268D2B21A80836A01338362CAE728
:103FA000826A531C836203685B6803F07F031370AB
:103FB000C1E7122380F83930DAE7002008BD7047E6
:103FC00008B5406AFFF7FBFF08BD704708B5406AB7
:103FD0000023C385C384012380F83930C36B43F0C9
:103FE0001003C363FFF7F1FF08BD10B582B00446AC
:103FF00003681968DA6811F0010F06D002F48072C4
:104000001AB1C26B42F00102C26319685A6902F028
:10401000010211F0020F04D01AB1E16B41F004016A
:10402000E163196811F0040F04D01AB1E16B41F09B
:104030000201E163196811F0080F04D01AB1E26BB4
:1040400042F00802E2631A68DB6803F0200312F012
:10405000200F00D0ABB923681A68DB6803F0800337
:1040600012F0800F00D083B923681A68DB6803F070
:10407000400312F0400F00D05BB9E36B6BB902B0A4
:1040800010BD2046FFF740FFE5E72046FFF796FC0E
:10409000EAE72046FFF7FEFEEFE723681A68019281
:1040A0005B680193019B012384F839302046FFF7B8
:1040B0008CFFE4E710B50446FEF79EFD064BA3FB1C
:1040C00000308009FFF720FA002221464FF0FF3030
:1040D000FFF7C0F9002010BDD34D621008B5074AA4
:1040E000136843F0100313600320FFF795F90020D5
:1040F000FFF7E0FFFDF7ACFE002008BD0020024006
:10410000024A136801331360704700BF280400207F
:10411000014B1868704700BF2804002010B582B01A
:104120000190FFF7F5FF0446FFF7F2FF001B019B2C
:104130009842F9D302B010BD4368114A934208D89F
:104140005800B1FBF0F0C0F30B03032B0CD8042094
:10415000704782684AB903EB4300B1FBF0F040F4CA
:104160000040C0F30B034BB1704703EB830000EB3F
:104170008000B1FBF0F040F44040F2E70120F3E7AB
:10418000A086010003685A6912F4806F0DD05A6945
:1041900022F480625A6104238363202380F835303F
:1041A000002380F8343001207047002070472DE94B
:1041B000F04106460C4690461D46FFF7A9FF07460C
:1041C000B8F1000F1BD045E025B1FFF7A1FFC01BE0
:1041D000854214D2202386F83530002386F8343007
:1041E0000320BDE8F08133685B6924EA03039BB2D6
:1041F000003318BF01237BB1B5F1FF3FE4D1C4F315
:104200000743012BEFD033689B6924EA03039BB279
:10421000003318BF0123EEE70020BDE8F08125B18F
:10422000FFF776FFC01B854214D2202386F8353075
:10423000002386F834300320BDE8F08133685B69E1
:1042400024EA03039BB2B3FA83F35B097BB1B5F1B4
:10425000FF3FE4D1C4F30743012BEFD033689B69E0
:1042600024EA03039BB2B3FA83F35B09EEE7002071
:10427000BDE8F081F8B504460D461646FFF748FF45
:10428000074631E01A6842F400721A6022685369E6
:1042900023F4806353610423A363202384F835301F
:1042A000002384F834300120F8BD26B1FFF730FF39
:1042B000C01B864218D2202384F83530002384F8AE
:1042C00034300320F8BD23685B6925EA03039BB201
:1042D000003318BF0123A3B123685A6912F4806F19
:1042E000D0D1B6F1FF3FE0D1C5F30743012BEAD0AF
:1042F00023689B6925EA03039BB2003318BF01239F
:10430000E9E70020F8BD000070B504460E461546EA
:104310000268136843F4807313602B4600224FF049
:104320000111FFF744FF10B10323184670BD236944
:10433000B3F5804F11D02268F31103F0060343F068
:10434000F00313612A4611492046FFF793FFB8B1E5
:10435000A36B042B12D00323E7E7236806F0FE06C5
:104360001E612A460A492046FFF784FF03460028BB
:10437000DBD0A36B042B07D00323D6E70123D4E7BC
:104380002368F6B21E61ECE70123CEE708000100C6
:104390000200010070B504460D46FFF7B9FE06465F
:1043A00023685B6913F0800F18D12046FFF7EAFEFF
:1043B000B0B9B5F1FF3FF3D025B1FFF7A9FE801BDF
:1043C0008542EDD2A36B43F02003A363202384F83E
:1043D0003530002384F83430032070BD002070BDD8
:1043E000012070BD70B504460D46FFF791FE0646EC
:1043F00023685B6913F0040F18D12046FFF7C2FE53
:10440000B0B9B5F1FF3FF3D025B1FFF781FE801BB6
:104410008542EDD2A36B43F02003A363202384F8ED
:104420003530002384F83430032070BD002070BD87
:10443000012070BD002800F0AE8038B50446036846
:10444000564A934208D002F58062934204D04FF45A
:10445000A5715348FDF7B8FE6368013B514A93428A
:1044600077D8A3683BB1B3F5804F04D04FF4A67161
:104470004B48FDF7A9FEE36823F47F7323F00303A1
:10448000002B6CD12369B3F5804F07D0B3F5404FB3
:1044900004D04FF4A7714248FDF796FE6369012BE3
:1044A00004D940F24F113E48FDF78EFEA36933F068
:1044B000FE035AD1E36933B1402B04D040F25111CD
:1044C0003748FDF781FE236A33B1802B04D04FF4C7
:1044D000A9713348FDF778FE94F83530002B4AD0A7
:1044E000242384F835302268136823F00103136015
:1044F000FEF788FB01462C4BA3FB00239B0C226894
:10450000536020686568294A95423AD801330362AE
:1045100025682046FFF710FEE8612268E369216AFA
:104520000B43136022682369E1680B4393602268A0
:104530006369A1690B43D3602268136843F00103E8
:1045400013600020A063202384F8353084F83600FF
:1045500038BD40F24B111248FDF736FE81E740F2BC
:104560004D110F48FDF730FE8CE74FF4A8710C4851
:10457000FDF72AFE9EE784F834302046FDF7A6FCBE
:10458000AEE74FF4967202FB03F3094AA2FB032342
:104590009B090133BBE70120704700BF0054004076
:1045A000D45A00087F1A060083DE1B43A086010050
:1045B000D34D6210F0B583B01E4690F83530DBB2B3
:1045C000202B03D00223184603B0F0BD04460F464B
:1045D0001546002A00F082800EB90123F3E742F26B
:1045E000107301223E49FFF7E2FD08B10223EAE71A
:1045F00094F83430012B01D10223E4E7012384F83D
:1046000034302268136823F400631360212384F894
:104610003530102384F836300023A363089A3946D6
:104620002046FFF771FE60B1A36B042B04D000237A
:1046300084F834300323C6E7002384F834300123A0
:10464000C1E723685A6901929B690193019B0DE0C0
:10465000A36B042B01D00323B5E72268136843F44E
:10466000007313600123AEE71E461546C6B10899D4
:104670002046FFF78FFE0028EAD123686A1C2978BC
:104680001961731E9BB22168486910F0040FEBD0CA
:10469000002BE9D013780B61B31E9BB2AA1CE3E791
:1046A00008992046FFF79EFE034658B1A36B042BE2
:1046B00001D0032387E72268136843F40073136073
:1046C000012380E721680A6842F400720A60202210
:1046D00084F83520002284F8342074E7012372E73F
:1046E0000200100038B504460D46012803D93921CF
:1046F0000348FDF769FD034B53F824305D6038BD76
:104700000C5B0008345B000808B5054B53F820002B
:10471000FFF790FE08B9002008BD012008BD00BFCA
:10472000345B000800B583B00A23009313460A46A1
:1047300041000548FFF73EFF18B9002003B05DF8BF
:1047400004FB4FF0FF30F9E75800002008B502489D
:10475000FEF789FA08BD00BFD000002008B5024866
:10476000FEF781FA08BD00BFD0000020014B586061
:10477000704700BF0C010020014B9860704700BFDC
:104780000C01002008B50548FEF7FAFB08B101202E
:1047900008BD0248FEF744FC002008BD0C010020C3
:1047A00008B50248FEF751FC08BD00BF0C0100200F
:1047B00038B504460D46022804D8054B53F824307A
:1047C0005D6038BD38210348FDF7FEFCF5E700BF0A
:1047D000685B00083C5B000808B5054B53F82000F7
:1047E000FFF72AFA08B9002008BD012008BD00BF64
:1047F000685B000808B50A4601460448FFF796FAC8
:1048000008B9002008BD4FF0FF3008BD5C01002052
:1048100008B582B20448FFF7D9FA08B9002008BDEC
:104820004FF0FF3008BD00BF9C010020014B186015
:10483000704700BF2C040020014B5860704700BF38
:104840002C040020014B9860704700BF2C0400200E
:10485000014BD860704700BF2C04002010B50446FF
:10486000032806D80549064B53F82400FEF714FC2C
:1048700010BD23210348FDF7A7FCF3E72C0400201B
:104880009C5B0008745B000870B504460D46164634
:10489000032807D8F2B22946054B53F82400FEF747
:1048A000A1FD70BD28210348FDF78EFCF2E700BF93
:1048B0009C5B0008745B000838B504460D4603286D
:1048C00006D82946054B53F82400FEF777FD38BD7E
:1048D0002D210348FDF778FCF3E700BF9C5B00083F
:1048E000745B00080FB400B583B004A951F8040B41
:1048F000019100F0B5F803B05DF804EB04B0704727
:1049000038B505460B4B1C6802E0012000F08AFE1A
:10491000094B1B7823B96319064A12689342F4D8ED
:104920002C44044B1B689C4201D9002038BD012057
:1049300038BD00BF54080020DC01002008B5642009
:10494000FFF7DEFF98B90A4B1B686BB1084A591C88
:1049500011600A21197007481168091A89B2FFF716
:1049600049FF0022044B1A70024A014B1A6008BD2D
:104970003C0800203C040020DC0100200FB430B5CE
:1049800083B006AC54F8045B6420FFF7B9FF0194D0
:104990002146284600F064F8074B1B68074A9B1A1B
:1049A000B3F5617F04DC03B0BDE8304004B070476C
:1049B000FFF7C4FFF7E700BF3C0800203C040020DD
:1049C00008B42DE9F04183B080460E46174609AC85
:1049D00054F8045B6420FFF793FF43463A463146A0
:1049E0000848FFF77FFF01942146284600F038F879
:1049F0000548FFF777FFFFF7A1FF03B0BDE8F041DF
:104A000001B07047AC5B0008645D00080122014BF7
:104A10001A707047DC01002010B504460A2807D040
:104A2000084B1B6843B1591C064A11601C7010BD2D
:104A30000D20FFF7F1FFF3E7034B1B680BB1204696
:104A4000984710BD3C0800204008002010B50446DF
:104A500002E00134FFF7E0FF20780028F9D110BD13
:104A60002DE9F04786B006460191741C3078002885
:104A700000F0EE80252803D0FFF7CEFF2646F4E7AE
:104A800002362078302804D02D2806D000270024B4
:104A90000EE0A61C60780127F9E7A61C60780227C3
:104AA000F5E704EB84046300C418303C3078013629
:104AB000A0F13002D2B2092AF3D96C281BD04C28BD
:104AC00019D0002800F0C480602819D9A0F1200373
:104AD000DBB2A3F14202162A46D8DFE802F04838DA
:104AE0003F454545454545454545454B45454513A8
:104AF000453F4545420047F0040730780136E0E77E
:104B00000346E6E7019B1A1D0192D3F800900025A9
:104B100000E0013519F80530002BFAD103E0202020
:104B2000FFF77AFF454617F0020F04D105F101089F
:104B3000A542F4D345464846FFF788FF03E020200E
:104B4000FFF76AFF3D466F1CA542F8D38DE7019B36
:104B50001A1D01921878FFF75FFF86E74FF00A0CE5
:104B60000AE04FF0100C07E0FFF756FF7DE74FF02B
:104B7000020C01E04FF0080C17F0040F0AD1442B8F
:104B80000DD0019A111D01911168442B0CD04FF0EA
:104B9000000E1EE0019A111D01911168F5E7019ABE
:104BA000111D01911168F0E70029F0DA494247F040
:104BB0000807ECE727252A44D2B20EF1010530326E
:104BC0000DF11808F04408F8102C73B10F2D0CD813
:104BD000AE46B1FBFCF30CFB1312D2B21946092A04
:104BE000EBD97828E6D00725E5E717F0080F06D0BF
:104BF00006AB1D442D2305F8103C0EF1020517F0FD
:104C0000010F03D04FF0300AA84606E04FF0200A0B
:104C1000FAE75046FFF700FFC84617F0020F04D12D
:104C200008F10109A045F4D3C846013D06AB2B4469
:104C300013F8100CFFF7F0FE002DF6D108F1010576
:104C4000A045BFF412AF2020FFF7E6FEA846F5E727
:104C500006B0BDE8F0870000F8B505460F464FF4F2
:104C600016510220FFF7A4FD0220FFF7B5FD06460E
:104C700008B13046F8BD144B1C683C442946082056
:104C8000FFF7C6FD04E01148FFF778FEFFF756FE78
:104C90000D4B1B689C4203D90D4B1B68002BF2D1B6
:104CA0000B4B1B6873B9334602E00022EA54013310
:104CB000022BFADD032302E04022EA540133062BE3
:104CC000FADDD6E70126D4E754080020BC5B0008D3
:104CD000E001002010B480280CD0174B1B68062B75
:104CE00019DC164AD054144B1B68082B1FDD032017
:104CF00010BC70470022104B1A60F4E70F4CA45C04
:104D00002344DBB20132062AF8DD434013F07F0F63
:104D10000BD00220ECE701220023F4E7074AD25C23
:104D2000CA540133072BF9DDDDE70023FAE701332D
:104D3000014A13600020DBE74408002048080020F7
:104D4000F8B506460F4B1B68002B0BDC0F46002402
:104D5000072C11DC3946305DFFF7BCFF054658B91A
:104D60000134F5E7074A1368013B13600146082048
:104D7000FFF74EFD0020F8BD31460820FFF748FD43
:104D80002846F8BDE0010020C378403B3F2B01DD01
:104D900040207047C378403B13F13F0F02DBC078DF
:104DA000403870476FF03F0070470379403B3F2B1E
:104DB00001DD402070470379403B13F13F0F02DBD8
:104DC0000079403870476FF03F0070474379403BAF
:104DD0003F2B01DD402070474379403B13F13F0FEB
:104DE00002DB4079403870476FF03F0070478379AD
:104DF000403B3F2B01DD402070478379403B13F15E
:104E00003F0F02DB8079403870476FF03F007047FA
:104E1000F0B583B00446837803F00303032B00F05E
:104E2000C280837813F0010F40F0BF800025002D71
:104E300040F0BD809448FFF7A1FD002D40F0BB80FD
:104E4000A37803F00303032B00F0B980A37813F0D9
:104E5000020F40F0B6800025002D40F0B4808B4852
:104E6000FFF78CFD002D40F0B280A37803F00C0317
:104E70000C2B00F0B080A37813F0040F40F0AD804D
:104E80000025002D40F0AB808148FFF777FD002D15
:104E900040F0A980A37803F00C030C2B00F0A7804E
:104EA000A37813F0080F40F0A4800025002D40F0F7
:104EB000A2807848FFF762FD002D40F0A080637863
:104EC00013F0010540F09F807348FFF757FD002D58
:104ED00040F09D80A37813F0200540F09C806F483F
:104EE000FFF74CFD002D40F09A80A37813F04005A9
:104EF00040F099806A48FFF741FD002D40F097800F
:104F0000A37813F0100540F096806648FFF736FD51
:104F1000002D40F09480637813F0020540F09380F8
:104F20006148FFF72BFD002D40F09180637813F06E
:104F3000040540F090805D48FFF720FD002D40F013
:104F40008E80637813F0080540F08D805848FFF795
:104F500015FD002D40F08B80637813F0100540F0B4
:104F60008A805448FFF70AFD002D40F0888052489F
:104F7000FFF704FD2046FFF707FF05462046FFF731
:104F800014FF06462046FFF721FF07462046FFF79D
:104F90002EFF00903B46324629464848FFF7EEFC7C
:104FA000002003B0F0BD002541E701253FE744485C
:104FB000FFF7E4FC3EE74348FFF7E0FC40E700254D
:104FC0004AE7012548E73E48FFF7D8FC47E73D4858
:104FD000FFF7D4FC49E7002553E7012551E738489E
:104FE000FFF7CCFC50E73748FFF7C8FC52E7002535
:104FF0005CE701255AE73248FFF7C0FC59E7314822
:10500000FFF7BCFC5BE72E48FFF7B8FC5CE72D48D8
:10501000FFF7B4FC5EE72A48FFF7B0FC5FE72948DA
:10502000FFF7ACFC61E72648FFF7A8FC62E72548DC
:10503000FFF7A4FC64E72248FFF7A0FC65E72148DE
:10504000FFF79CFC67E71E48FFF798FC68E71D48E0
:10505000FFF794FC6AE71A48FFF790FC6BE71948E2
:10506000FFF78CFC6DE71648FFF788FC6EE71548E4
:10507000FFF784FC70E71248FFF780FC71E71148E6
:10508000FFF77CFC73E700BFD05B0008E85B00081B
:10509000F05B0008F85B0008005C0008085C000892
:1050A0000C5C0008145C00081C5C0008245C000810
:1050B0002C5C0008345C0008645D00083C5C00085F
:1050C000C05B0008D85B000830B585B00546438852
:1050D0000F4CA4FB0324E408B4F57A7F0ED22A799E
:1050E000230A43EA82038DF80C308DF80D4002222A
:1050F00003A9287800F05CF805B030BD0278019370
:105100000092044B202204490448FFF759FCE6E7CB
:10511000CDCCCCCC7C5C0008985C0008945C00088A
:1051200010B5044601780F48FFF728FC2379032BBC
:1051300006D8DFE803F0020A0E120B48FFF71EFC48
:1051400061880A48FFF71AFC10BD0948FFF716FCF2
:10515000F6E70848FFF712FCF2E70748FFF70EFCF6
:10516000EEE700BF545C0008605C0008705C00085B
:10517000645C0008685C00086C5C000800B583B0E3
:1051800043788DF80430DB438DF80530022201A905
:10519000007800F00DF803B05DF804FB08B5427824
:1051A00001780248FFF7EAFB08BD00BFA45C0008D5
:1051B000F0B585B006460F461446FFF7B3FA05462C
:1051C00010B9284605B0F0BD3B78029301940096D3
:1051D000034B192203490448FFF7F2FBF1E700BF34
:1051E000B45C0008DC5C0008945C000810B5002486
:1051F000062C0ADC04EB440253000C481844FFF769
:1052000063FF034628B90134F2E70024002C02DDD5
:105210000023184610BD064800EB4400FFF7AEFF20
:1052200003460028F5D10134F0E700BF0800002054
:105230000400002010B5002407E004EB44025300F2
:1052400008481844FFF76CFF0134062CF5DD0024F4
:10525000002C00DD10BD044800EB4400FFF79EFF6A
:105260000134F5E7080000200400002008B50649D5
:105270000020FFF737FA0020FFF746FA034608B987
:10528000184608BD0123FBE7A086010000207047F7
:1052900000B595B009230A934FF480330B93002295
:1052A0000C92012210920222119212934FF4E013F9
:1052B00013930AA8FCF78AFF48BB0F23059302212A
:1052C0000691002307934FF480620892099305A882
:1052D000FDF746FB28BB022301934FF400430393E1
:1052E00001A8FDF77DFD20BBFDF786FC4FF47A7326
:1052F000B0FBF3F0FEF708F90420FEF71BF90022DB
:1053000011464FF0FF30FEF7A5F8002006E00D4BE8
:10531000D1220D490D48FFF753FB012015B05DF870
:1053200004FB0B4BDC2208490848FFF749FB01202E
:10533000F4E7084BE32204490448FFF741FB01204E
:10534000ECE700BFF05C0008B85D0008945C000862
:10535000005D0008145D000800B585B0284B9A690F
:1053600042F004029A619A6902F004020092009AE3
:105370009A6942F008029A619A6902F00802019261
:10538000019A9A6942F010029A619A6902F0100239
:105390000292029A9A6942F020029A619B6903F094
:1053A00020030393039B4FF40050FFF73FFA0020C4
:1053B000FFF742FA0020FFF745FA0220FFF74EFA06
:1053C0002020FFF733FA0120FFF736FA0220FFF71B
:1053D0003FFA0020FFF742FA1020FFF727FA0948AA
:1053E000FFF72AFA0020FFF72DFA0220FFF736FA1E
:1053F000002220211046FFF747FA05B05DF804FBB4
:10540000001002400000111038B5FEF767FE10B121
:105410000124204638BDFFF73BFF08B10124F8E71F
:105420000120FFF7D9F9FFF789FAFFF71FFF0446BC
:105430000028EED1FFF790FFFCF7ACFC1A4BA92235
:105440001A491B48FFF7BCFA1A491B48FFF704FC2E
:10545000D0B9164D164C194BAF2229462046FFF7FE
:10546000AFFA174BB22229462046FFF7A9FA0220CD
:10547000FFF77CF9FA20FFF77FF9FFF783F904467D
:1054800050B9FCF787FCC4E70E4BAB2207490E4826
:10549000FFF796FA0124BCE70C4BB72229460A48CD
:1054A000FFF78EFAB5E700BF305D0008B05D000879
:1054B0004C5D0008A086010058080020685D0008C7
:1054C0007C5D0008505D0008945C00088C5D00085D
:1054D00008B5FCF764FC08BD08B5FFF787FE08BDFA
:1054E00000B583B0FFF790FF90B90A20FFF7CEFE1A
:1054F000E0B900223A4B1A603A4B44223A493B4801
:10550000FFF75EFA3A48FFF739FAFFF717FA39E082
:105510000090384B352234493748FFF751FA642060
:10552000FFF7EEF9012003B05DF804FB0090334B68
:105530003C222D493048FFF743FA6420FFF7E0F999
:10554000F0E7274B19682E4BA3FB0123DB0803EB85
:1055500083035A008B1A042BF3D1FFF7BDFF80BBE6
:105560001F4B1968264BA3FB0123DB0803EB8303C6
:105570005A009142F4D1234B1A6801321A601B6819
:10558000132B26D8FFF70CF9FFF7A2FF144B1A686C
:105590001D4BA3FB02131B09322101FB1323092B13
:1055A000CFD81A48FFF7EAF91948FFF731FCFFF79F
:1055B00041FE184B19781848FFF7E0F9FFF7BEF9DC
:1055C000BFE70090154B602207490B48FFF7F8F939
:1055D000A8E7134B692204490748FFF7F1F9FEE7F2
:1055E00054080020105E0008A85D00084C5D00080B
:1055F0001C5E0008E05D0008945C0008F45D000893
:10560000CDCCCCCC500800201F85EB51205E00088B
:1056100058080020E4010020285E00082C5E0008E5
:10562000485E000810B582B00446084B1B68019321
:1056300001E0FFF7B5F8019B2344044A1268934246
:10564000F7D8FFF7ADF802B010BD00BF5408002036
:1056500008B508490848FFF773FB18B90022074B43
:105660001A6008BD064B4FF4887206490648FFF7DA
:10567000A7F9F3E758080020600800205008002030
:10568000E85C0008C85D0008945C000808B5FFF7F6
:10569000BDF908BD002103E00B4B5B5843500431BA
:1056A0000A480B4B42189A42F6D30A4A02E00023FA
:1056B00042F8043B084B9A42F9D3FBF727FDFBF76E
:1056C00087FCFFF70DFF7047645E000800000020B4
:1056D000E8010020E801002068080020FEE7000043
:1056E000F8B500BFF8BC08BC9E467047F8B500BFCF
:0856F000F8BC08BC9E4670479F
:1056F800FA000000FA000000C8000000D00700000F
:10570800F4010000E8030000020304050607080985
:105718000A0B0C0D0E0F1010010200000000000013
:105728004FBB610567ACDD3F182D4454FB21E93FB1
:105738009BF681D20B73EF3F182D4454FB21F93FA0
:10574800E2652F227F2B7A3C075C143326A6813C26
:10575800BDCBF07A8807703C075C143326A6913CD1
:105768000000000000000000010203040607080909
:105778000000000001020304000000001400000003
:10578800ECFFFFFF6C6566742061646A75737400D2
:1057980000000000250000000000000000000000DC
:1057A80014000000ECFFFFFF7269676874206164F1
:1057B8006A757374000000002500000000000000F6
:1057C80032000000C8000000000000007374656526
:1057D80072696E672074696D650000002A31306D4A
:1057E800730000000A000000E70300000100000049
:1057F80072632074696D656F7574000000000000A5
:105808007300000000000000040000000600000013
:1058180002000000726320636E74722074686572FF
:10582800657300002F3136000000000004000000FE
:105838000600000002000000726320636E7472208C
:1058480074686572657300002F313600000000002F
:1058580004000000060000000200000072632063DC
:105868006E74722074686572657300002F3136009B
:105878000000000004000000060000000200000014
:10588800726320636E7472207468657265730000B9
:105898002F31360000000000040000000600000060
:1058A80002000000726320636E747220746865726F
:1058B800657300002F31360000000000636F756EBD
:1058C800745F68616E64203D202532640A00000020
:1058D8005049315B25645D205049325B25645D0A7F
:1058E80000000000636865636B5F66697273745BD0
:1058F80025645D20636865636B5F6C6F61645B251D
:10590800645D0A0053544152545F505553483D2535
:10591800640A0000636F756E745F72656C6561730D
:10592800653D2532640A00005175616472616E74C8
:105938003A2564206465677265653A25640AC2B0D1
:1059480000000000447269766572732F53544D331A
:1059580032463178785F48414C5F447269766572A7
:105968002F5372632F73746D3332663178785F68A2
:10597800616C5F7263632E63000000004472697695
:105988006572732F53544D3332463178785F4841EE
:105998004C5F4472697665722F5372632F73746D0E
:1059A8003332663178785F68616C5F7263635F6514
:1059B800782E6300447269766572732F53544D33A1
:1059C80032463178785F48414C5F44726976657237
:1059D8002F5372632F73746D3332663178785F6832
:1059E800616C5F697764672E6300000044726976B2
:1059F8006572732F53544D3332463178785F48417E
:105A08004C5F4472697665722F5372632F73746D9D
:105A18003332663178785F68616C5F6770696F2EC2
:105A280063000000447269766572732F53544D33D6
:105A380032463178785F48414C5F447269766572C6
:105A48002F5372632F73746D3332663178785F68C1
:105A5800616C5F636F727465782E63004472697657
:105A68006572732F53544D3332463178785F48410D
:105A78004C5F4472697665722F5372632F73746D2D
:105A88003332663178785F68616C5F646D612E636C
:105A980000000000447269766572732F53544D33C9
:105AA80032463178785F48414C5F44726976657256
:105AB8002F5372632F73746D3332663178785F6851
:105AC800616C5F756172742E6300000044726976C0
